:020000040800F2
:10000000400D00204D020008852D0008E124000865
:10001000832D0008C5040008B9380008000000005E
:100020000000000000000000000000002332000873
:10003000C704000800000000A72D000825320008B2
:1000400067020008670200086702000867020008EC
:1000500067020008670200086702000867020008DC
:1000600067020008670200086702000867020008CC
:1000700067020008670200086702000867020008BC
:1000800067020008670200086702000867020008AC
:10009000670200086702000867020008670200089C
:1000A000670200086702000867020008670200088C
:1000B00067020008DD3200086702000867020008D6
:1000C000670200086702000867020008670200086C
:1000D000670200084D380008670200086702000840
:1000E000670200086702000867020008670200084C
:1000F000670200086702000867020008670200083C
:10010000670200086702000867020008670200082B
:10011000670200086702000867020008670200081B
:10012000670200086702000867020008670200080B
:1001300067020008670200086702000867020008FB
:1001400067020008670200086702000867020008EB
:1001500067020008670200086702000867020008DB
:1001600067020008670200086702000867020008CB
:10017000670200086702000867020008000000002C
:1001800067020008670200086702000867020008AB
:10019000670200086702000867020008670200089B
:1001A00067020008670200086702000800F002F812
:1001B00000F03CF80AA090E8000C82448344AAF1C5
:1001C0000107DA4501D100F031F8AFF2090EBAE8C3
:1001D0000F0013F0010F18BFFB1A43F0010318477B
:1001E0005085000070850000103A24BF78C878C19F
:1001F000FAD8520724BF30C830C144BF04680C602D
:10020000704700000023002400250026103A28BF74
:1002100078C1FBD8520728BF30C148BF0B60704778
:100220001FB503F081FC1FBD10B510BD00F0AAF88A
:100230001146FFF7F5FF03F073FB00F0C8F803B4B5
:10024000FFF7F2FF03BC03F038FB000009488047CA
:1002500009480047FEE7FEE7FEE7FEE7FEE7FEE7A8
:10026000FEE7FEE7FEE7FEE704480549054A064BC0
:100270007047000099320008AD01000840070020D7
:10028000400D00204009002040090020704753EA3B
:10029000020C00F069802DE9F04B4FF00006002BB6
:1002A0001FBFB3FA83F503FA05F424FA05F65E409E
:1002B00012BF1643B2FA82F502FA05F4C5F1200521
:1002C0001EBF22FA05FC44EA0C04203556EA044C11
:1002D0004FEA144418BF641C4FF000084FF00009A7
:1002E000904271EB030C39D3002919BFB1FA81F7A1
:1002F00001FA07F6B0FA80F700FA07F6C7F120070F
:100300001EBF20FA07FC46EA0C062037B6FBF4FCB9
:10031000A7EB0507103F07F01F0BCBF120060CFAE7
:100320000BFB2CFA06F644BFB3460026202FA4BFD1
:100330005E464FF0000B5BEA060C08BF4FF0010B66
:1003400019EB0B09ABFB027C48EB0608C01B06FB54
:1003500002CC0BFB03CC71EB0C01C1E70B46024650
:1003600041464846BDE8F08B13B54FF000004FF012
:100370000001AFF30080BDE81C4070477047704734
:1003800070477047754600F02BF8AE460500694689
:10039000534620F00700854618B020B5FFF764FFEC
:1003A000BDE820404FF000064FF000074FF0000876
:1003B0004FF0000B21F00701AC46ACE8C009ACE8F7
:1003C000C009ACE8C009ACE8C0098D46704710B55B
:1003D0000446AFF300802046BDE81040FFF72FBF72
:1003E00000487047E006002070B50446006802F03F
:1003F0009DFC48BB20688168144A114215D1816870
:10040000D6433140491C816000F04EFE054616E09F
:1004100002F08CFC20B9206881683140491C816061
:1004200000F042FE401B022809D9A06D40F01000E8
:10043000A065E06D40F00100E065012070BD20681E
:100440000168C943C907E3D1002070BD3F000080A7
:1004500010B58AB0002419480694079416490894E8
:10046000C0E900148460C4600461446144760121E1
:10047000C16180F8204044628462C46204764463AF
:1004800080F8384080F8304000F0F6FA06A90B48B2
:10049000069400F06BF80A4800900620CDE90104AC
:1004A0007F2003900420CDE904046946034800F04E
:1004B000D5F80AB010BD0000000004503806002036
:1004C0000800900CFEE7704770B54FF6FF7002F021
:1004D00067F81D4D4FF4FC600A242880A3B2A1B236
:1004E000F022002002F088F81434F02CF6DB0A2405
:1004F000A2B2A0B2F023002102F07EF81434F02C56
:10050000F6DB4FF4784028800222E6210A2002F030
:10051000EDF80A22F0230021104602F06DF8E623E0
:10052000F0221946002002F067F810235422D2214D
:10053000E62002F09DFABDE870401023562200210B
:10054000084602F095BA00000E00002010B50648DB
:1005500000F024FC0A21044800F0A4FB024800F04B
:1005600088FA80B210BD0000380600202DE9F0475F
:10057000044690F854009AB00D464FF00008012848
:1005800013D0012084F85400304E20684FF0000949
:10059000B0420ED12E4F0097384602F0CFFB824674
:1005A000206802F0CBFB60B10EE002201AB0BDE87B
:1005B000F087A16D41F02001A16584F854900120DD
:1005C000F4E7BAF1000F09D0A06D40F02000A0655B
:1005D0004FF0010884F854904046E7E71D48296829
:1005E0001D4A0029816840F61F7321F460411BD029
:1005F00094F830C041EA4C31D5F804C041EA0C010E
:100600008160B168BE68C1F30001C6F3000692685C
:100610003143C2F300021143DCD1AA6829681143B7
:1006200082689A4311430EE08160B168BD68C1F3EE
:100630000001C5F3000592682943C2F3000211438B
:10064000C8D1816899438160C4E70000000004506C
:100650000001045000030450000204502DE9F84F3B
:1006600000270446009790F85400DFF8D0930D4619
:10067000B846012810D0012684F85460206802F0A2
:1006800059FB58B1A06D40F02000A065012784F807
:100690005480384600F0EAB90220FBE768680C2372
:1006A000052812D8022807D0032807D0042807D02D
:1006B000052807D0062007E06B6006E0122003E063
:1006C000182001E04FF480706860D5E9002103EA4A
:1006D0009113206801F01F0118444FF01F0C0CFA11
:1006E00001FC036BC2F3846223EA0C038A401343C8
:1006F0000363206802F01EFB8246206802F012FBB2
:100700005AEA000125D1AA6829682068B2F1004F91
:1007100020D002F01FFB2068416921F000414161B7
:1007200020686A69C168C1F3C10149008A4029692A
:10073000042917D000EB81002B68DFF804C3016E99
:1007400003F0F84301EA0C011343194341F000415F
:1007500001667AE0002202F0FDFA2068416941F06A
:100760000041DCE7002102F0D7FA400320684FF097
:10077000000171D002F0D0FA90FAA0F0B0FA80F146
:10078000286842036DD090FAA0F0B0FA80F0814260
:1007900004D100221146206802F0EBFA0121206802
:1007A00002F0BAFA400320684FF001015CD002F079
:1007B000B3FA90FAA0F0B0FA80F12868420358D05A
:1007C00090FAA0F0B0FA80F0814204D10022012119
:1007D000206802F0CEFA0221206802F09DFA400360
:1007E00020684FF0020147D002F096FA90FAA0F08C
:1007F000B0FA80F12868420343D090FAA0F0B0FA32
:1008000080F0814204D100220221206802F0B1FA76
:100810000321206802F080FA400320684FF00301B2
:1008200032D002F079FA90FAA0F0B0FA80F128689C
:1008300042032ED090FAA0F0B0FA80F0814204D1A9
:1008400000220321206802F094FA206802F06EFA78
:1008500010B3AAE000E004E002F05EFAC0F38461A5
:100860008EE7C0F3846092E702F056FAC0F3846129
:10087000A3E7C0F38460A7E702F04EFAC0F38461F7
:10088000B8E7C0F38460BCE702F046FAC0F38461C5
:10089000CDE7C0F38460D1E721682A7B286851F84E
:1008A000B03FC0F3120C23EA0C0302F0180C654AA7
:1008B00022FA0CF2024013430B60E968494574D1F7
:1008C000286841031AD090FAA0F1B1FA81F1491CCD
:1008D00001F01F0109294FEA403130D8002910D01A
:1008E00090FAA0F1B1FA81F101F1010101F01F01CB
:1008F00006FA01F608D1C0F3846109E0C0F384610F
:10090000E5E7C0F38461EFE790FAA0F1B1FA81F175
:1009100001F1010101F01F0146EA816102D1C0F33A
:10092000846003E090FAA0F0B0FA80F000F10100DA
:1009300000F01F0000EB400041EA005131E00029C7
:100940000DD090FAA0F1B1FA81F101F1010101F0AD
:100950001F0106FA01F605D1C0F3846106E0C0F379
:100960008461F2E790FAA0F1B1FA81F101F101019D
:1009700001F01F0146EA816102D1C0F3846003E007
:1009800090FAA0F0B0FA80F000F1010000F01F0032
:100990002D4A00EB400002EB005041EA000141F01B
:1009A0000071AA68206802F0D5F928482968014238
:1009B0003FF46DAE264A9068264E274B274D00F037
:1009C000E070B1421CD106021AD42168994202D0CB
:1009D000A9427FF45CAE916840F4000021F0E07120
:1009E000014391601E481F490068B0FBF1F000EB25
:1009F0004000800000E0401E00900028FBD146E649
:100A0000194EB14209D1C60107D42168994201D0DB
:100A1000A942F4D140F080700AE06FF00045E9424D
:100A2000EDD14102EBD421689942E8D140F4800035
:100A3000916821F0E0710143916028E600007F4059
:100A400000F0FF03FFFF0700000020FE0000088009
:100A500000030450000052C700000450000204507C
:100A600000000020400D0300000084CB18BCBDE84E
:100A7000E08F0068006C7047F8B54FF00005040087
:100A80002E46009502D0A06D10B107E00120F8BD00
:100A9000204600F0D5F8E66584F854602068816847
:100AA000C1F3407119B181685B4A114081602068CF
:100AB0008168C1F3007179B98168584A114041F0E9
:100AC00080518160564857490068B0FBF1F000E062
:100AD000401E00900028FBD120688168C1F300719E
:100AE00041B9A16D41F01001A165E16D41F0010135
:100AF000E165012502F01EF9A16DC90600D430B1EF
:100B0000A06D40F01000A06501252846F8BDA06D3D
:100B100020F4807040F00200A065206802F006F921
:100B2000A8B9414880684149C0F300008968C1F311
:100B3000000108433E498968C1F30001084306D11A
:100B40003C4960688A6822F47C1202438A60E1684A
:100B5000606B627E0843A16841EA4231084394F821
:100B6000201040EA0140012904D1A18C324A02EB55
:100B700041410843A16A29B101F47071E26A01435D
:100B800042EA01002168CA682C4B1A400243CA603D
:100B9000206802F0CFF80646206802F0C3F806434A
:100BA00017D1207E94F83010800340EA4101E06CB8
:100BB00001432068C26844F206039A430A43C260B4
:100BC00094F8380001280CD02068016921F0010157
:100BD0000161206901282068016B21F00F0110D00C
:100BE00012E0D4E90F100143D4E91102104301438C
:100BF0002068026940F2FC739A43114341F00101FD
:100C0000E6E7E269521E11430163A06D20F0020085
:100C100040F00100A06578E7C0FFFF5FC0FFFF7FE5
:100C200000000020400D03000000045000010450AB
:100C300000020450000304500000FEFF07C0F0FF54
:100C400000B500681449A9B0884223D14FF4804010
:100C500000904FF040501F90684600F0D5FA0F48C2
:100C6000C16C41F40051C164C16C01F40051289180
:100C7000C16C41F00401C164C06C23A900F0040000
:100C80002890042023900B202490002025900448D5
:100C900000F026F929B000BD000004500010024009
:100CA000000800482DE9F041044639480F468168A4
:100CB00001F01F05616908290FD085B1052D0ED0FF
:100CC000092D0CD0806800F4604060B1A06D40F048
:100CD0002000A0650120BDE8F081082604E020681E
:100CE000C068C007F1E7042600F0DEF9804608E09E
:100CF000781C06D000F0D8F9A0EB0800B8420FD855
:100D000077B1206800683042F2D0A06D40F40070E6
:100D1000A065206802F016F8D0B1607E48B117E0F7
:100D2000A06D40F00400A065002084F8540003206A
:100D3000D1E72068006800070AD5A06D20F4807014
:100D4000A065A06DC00403D4A06D40F00100A065B3
:100D5000104B20681049984201D10A4600E0024633
:100D6000824210D07DB1052D0DD0092D0BD09842B7
:100D700000D00146C968082E07D0490401D40C21CF
:100D800001600020A7E7C168F5E70821F8E7000047
:100D90000003045000010450000004502DE9F0410C
:100DA00004463748806800F01F05206801F0C2FF44
:100DB00018B102210846BDE8F08194F854000128DA
:100DC0000CD0012084F854002046FFF70DFB0100F1
:100DD0004FF0000704D084F85470EBE70220EAE7F4
:100DE000A06D40F60162904340F48070A065254EEE
:100DF0002068254BB04201D11A4600E002468242EB
:100E000000D01DB9A26D22F48012A265A26DD20499
:100E100004D5E26D22F00602E26500E0E7651C22DF
:100E2000026084F854702068B04201D11A4600E094
:100E30000246824215D0A5B1052D12D0092D10D041
:100E4000A26D42F48012A265B04200D11846C0687B
:100E50008001AFD5A06D20F4005040F48050A06513
:100E6000A8E7C268920105D5A26D22F4005242F4AF
:100E70008052A2658268054B1A40121D826099E774
:100E8000000304500001045000000450C0FFFF7F25
:100E900010B590F825100024022903D00421C16365
:100EA00001241AE001680A6822F00E020A60016853
:100EB0000A6822F001020A6090F84410012301F050
:100EC0001C0203FA02F1026C516080F82530002107
:100ED00080F82410816B01B18847204610BD0000C6
:100EE0002DE9F84FDFF88891002209F1040A0AF190
:100EF000040B4FF00F080BF1040EB2E001269640F0
:100F0000334070D04C68022C01D0122C11D1D4087F
:100F100000EB84073D6A5407E40E08FA04FC25EA56
:100F20000C05D1F810C00CFA04FC4CEA050CC7F80B
:100F300020C007685400032591F804C0A5400CF0B8
:100F4000030CAF430CFA04FC4CEA070CC0F800C0D9
:100F50004F68012F05D0022F03D0112F01D0122F7F
:100F600011D18768D1F80CC0AF430CFA04FC4CEAED
:100F7000070CC0F808C04768B7430E79C6F30016DF
:100F800096403E434660C668AE438D68A5403543F3
:100F9000C5604C68E40063D5364C256E45F001050C
:100FA0002566246E22F0030504F001040094324CFF
:100FB0002E19B7689407250F08FA05F4A743B0F176
:100FC000904F04D02D4CA04203D1012421E00024F5
:100FD0001FE02B4CA04201D102241AE0294CA04270
:100FE00002D1032415E03BE0274CA04201D10424A8
:100FF0000FE0264CA04201D105240AE0244CA04277
:1010000001D1062405E0234CA04201D1072400E0D1
:101010000824AC403C43B460D9F800404D464E68CB
:101020009C43F60300D51C432C60DAF8004055467B
:101030004E689C43B60300D51C432C60DBF800408F
:101040005D464E689C43F60200D51C432C60DEF8DA
:10105000004075464E689C43B60200D51C432C6088
:10106000521C0B6833FA02F47FF448AF00F014B856
:10107000000401400010024000000140000400484C
:1010800000080048000C0048001000480014004808
:1010900000180048001C004818BCBDE8E08F0AB1E9
:1010A00081617047816270470148006870470000A5
:1010B0000400002002480168491C016070470000DC
:1010C0000400002010B50024052000F04FF8002097
:1010D00000F008F808B1012401E000F01BF82046F8
:1010E00010BD000070B5054609484FF47A71002420
:1010F0000068B0FBF1F000F01BFF08B1012404E030
:1011000000222946501E00F011F8204670BD000054
:1011100000000020704700F01F02012191404009AB
:10112000800000F1E020C0F800117047F0B40E4BD1
:101130001B68C3F30223C3F10704042C00D9042461
:101140001D1D072D01D2002300E0DB1E012606FA3B
:1011500004F56D1E0D409D409E40761E164045EAEA
:101160000601F0BC01F00FBE0CED00E0064A00F0F5
:10117000070110684FF6FF03184040EA01200349B9
:1011800008431060704700000CED00E00000FA0515
:101190001649B0F5007F0868C0F3412009D0022845
:1011A00005D0086820F4C06040F48060086000202A
:1011B00070470128FBD0086820F4C06040F400703C
:1011C00008600B483222006850430A4AB0FBF2F034
:1011D000401C00E0401E4A69520501D50028F9D1A3
:1011E00048694005E3D503207047000000700040C7
:1011F0000000002040420F000248006800F4C06078
:1012000070470000007000402DE9F84F04460025AB
:101210000088EB4E2F46010504F1200B1DD5A06E72
:1012200078B1B0F5800F11D0B0F5000F04D0B0F553
:10123000400F22D001250FE0F06840F48030F060CC
:101240001BE00021201D01F0AFFD03E00021584606
:1012500001F03EFE050010D02F462088C00426D5A0
:10126000E06EC0B1B0F1807F1AD0B0F1007F0DD038
:10127000B0F1407F19D0012518E0D6F88800A16EA2
:1012800020F440000843C6F88800E6E7F06840F420
:101290008030F06009E00021201D01F085FD03E0B1
:1012A0000021584601F014FE0546F5B12F4620688E
:1012B000800367D5B06D4FF00009C00009D4B06D50
:1012C00040F08050B065B06D4FF0010900F08050E3
:1012D0000090DFF8F0A2DAF8001041F48071CAF84B
:1012E0000010FFF7E1FE804610E0D6F88800E16EBE
:1012F00020F040700843C6F88800D8E7FFF7D4FE16
:10130000A0EB0800022801D9032533E0DAF8000039
:10131000C005F3D575BBD6F8900010F4407015D019
:10132000D4F88810814211D0D6F89000D6F89010E9
:1013300020F4407041F48031C6F89010D6F8901037
:1013400021F48031C6F89010C6F89000C0077DD017
:10135000FFF7AAFE804641F2883A05E0FFF7A4FEB7
:10136000A0EB08015145CFD8D6F890008007F5D5FD
:10137000002D6BD02F46B9F1000F03D0B06D20F0D7
:101380008050B0652078C00707D0D6F88800A16BE0
:1013900020F003000843C6F888002078800707D5AE
:1013A000D6F88800E16B20F00C000843C6F88800EE
:1013B0002078400707D5D6F88800216C20F030004F
:1013C0000843C6F888002078000707D5D6F88800BB
:1013D000616C20F0C0000843C6F888002078C00681
:1013E00007D5D6F88800A16C20F440700843C6F8F1
:1013F00088002078800607D5D6F88800E16C20F4B4
:1014000040600843C6F888002088800507D5D6F8D4
:101410008800216E20F440200843C6F88800208808
:10142000400507D5D6F88800616E20F440100843C7
:10143000C6F888002078400607D5D6F88800216DC8
:1014400020F440500843C6F8880000E037E02078D8
:10145000000607D5D6F88800616D20F440400843A7
:10146000C6F888002088C00507D5D6F88800A16D89
:1014700020F440300843C6F888002068C00207D531
:10148000D6F89C00E16D20F003000843C6F89C00EC
:1014900020884FF0006580044FF0806821D5D6F891
:1014A0008800216F20F040600843C6F88800206F54
:1014B000A8420ED1F06840F48010F06011E0D6F838
:1014C0009000D4F8881020F440700843C6F89000CB
:1014D00051E7404505D10121201D01F065FC00B117
:1014E00007462068000317D5D6F88800616F20F002
:1014F00040600843C6F88800606FA84204D1F068D5
:1015000040F48010F06007E0404505D10121201D26
:1015100001F04AFC00B107462068400317D5D6F811
:101520008800A16F20F040600843C6F88800A06FD3
:10153000A84204D1F06840F48010F06007E0404514
:1015400005D10121201D01F02FFC00B107462088A4
:1015500040041AD5D6F88800E16F20F040500843C7
:10156000C6F88800E06FB0F1805F03D0B0F1005F93
:1015700005D00AE00221201D01F016FC03E0022143
:10158000584601F0A5FC00B107462088000408D5A4
:10159000D6F88800D4F8801020F080400843C6F8C0
:1015A00088002068C00307D556F8880FD4F8841047
:1015B00020F0004008433060384600F005B80000D5
:1015C000001002400070004018BCBDE8E08F000031
:1015D0002DE9F0470D4604005ED0DFF80881D8F809
:1015E000000000F00700A8420CD2D8F8001021F04B
:1015F00007012943C8F80010D8F8000000F00700E0
:10160000A84249D12078384EC0072BD06068032803
:1016100011D0022812D0316898B1490500293BDA6F
:10162000B16821F003010143B160FFF73DFD0746BA
:1016300041F288390FE031688901EFE731688903A9
:10164000ECE78907EAE7FFF72FFDC11B494502D9FF
:101650000320BDE8F087B068616800F00C00B0EBD3
:10166000810FF0D12078800705D5B068A16820F0FF
:10167000F0000843B060D8F80010404601F00701C0
:10168000A9420BD9016821F00701294301600068D4
:1016900000F00700A84201D00120DAE720784007D7
:1016A00005D5B068E16820F4E0600843B0602078B8
:1016B000000706D5B068216920F4605040EAC100F7
:1016C000B06000F03BF8B168084AC1F30311515C07
:1016D00001F01F01C84006490860BDE8F04700203E
:1016E000FFF700BD0020024000100240343B00081C
:1016F000000000200548064900688968054AC1F3D2
:101700000221515C01F01F01C84070470000002019
:1017100000100240743B00080548064900688968CB
:10172000054AC1F3C221515C01F01F01C840704756
:101730000000002000100240743B000870B5264BEA
:10174000002210469968DC6811F00C0104F00306D1
:10175000224C4FEA640508D00C2904D0042925D076
:10176000082925D010E0012E10D11A68120704D4E0
:10177000D3F89420C2F3032202E01A68C2F30312E2
:10178000174E56F8222079B10C290ED1D86800F0F6
:101790000301D868C0F30210401C02290AD00329B3
:1017A0000BD0B2FBF0F00AE0104670BD204670BDD1
:1017B000284670BDB4FBF0F001E0B5FBF0F0D9684D
:1017C000C1F306214843D968C1F34161491C49006E
:1017D000B0FBF1F070BD0000001002400024F400E6
:1017E000443B00082DE9F84304007CD0F84DA8687C
:1017F00000F00C06E86800F003072078C00662D508
:1018000076B10C2E01D1012F0AD0A06900282868DA
:1018100078D040F001002860FFF746FC804659E090
:101820002868800702D5A0690028DED0216A2868D0
:10183000000703D5286800F0F00004E0D5F8940014
:10184000F02202EA1010814216D9084601F0C2FBCC
:10185000002848D1286840F0080028602868216ADC
:1018600020F0F000084328606868E16920F47F40B8
:1018700040EA0120686015E0286840F00800286010
:101880002868216A20F0F000084328606868E16950
:1018900020F47F4040EA01206860206A01F09AFB52
:1018A0000028D6D1FFF74AFFA968CA4AC1F303113D
:1018B000515C01F01F01C840C74908600020FFF7D4
:1018C00011FC00287ED12DE0FFF7EEFBA0EB080015
:1018D000022878D828688007F6D5286840F00800E4
:1018E0002860286801E0B8E00CE0216A20F0F000F0
:1018F000084328606868E16920F47F4040EA0120DD
:1019000068600FE020F001002860FFF7CDFB804603
:1019100005E0FFF7C9FBA0EB08000228D9D828682A
:101920008007F6D42078C00740D0082E18D00C2E9F
:1019300001D1032F14D06068B0F5803F17D0B0F507
:10194000A02F286817D020F480302860286820F461
:10195000802028606068E0B1FFF7A6FB804614E0B5
:101960002868800322D56068002876D01EE02868A9
:1019700040F48030EDE740F480202860F7E7FFF77F
:1019800093FBA0EB08006428A3D828688003F6D551
:101990000CE0FFF789FB804605E0FFF785FBA0EB35
:1019A0000800642895D828688003F6D4207880073A
:1019B00039D5042E11D00C2E01D1022F0DD0E068A4
:1019C000002801E058E1B3E028681DD040F48070A1
:1019D0002860FFF769FB07460BE0286840050BD538
:1019E000E0680028C1D007E0FFF75EFBC01B0228BB
:1019F00094D828684005F7D56868217C20F0FE401F
:101A000040EA016068600EE020F480702860FFF713
:101A10004BFB074604E0FFF747FBC01B0228B3D887
:101A200028684005F7D42078000728D56069002889
:101A3000D5F8940012D040F00100C5F89400FFF7EB
:101A400033FB074604E0FFF72FFBC01B02286FD8CB
:101A5000D5F894008007F6D511E014E120F00100DC
:101A6000C5F89400FFF720FB074604E0FFF71CFBD6
:101A7000C01B02285CD8D5F894008007F6D42078E3
:101A8000400766D5A86D4FF00008C00009D4A86DC6
:101A900040F08050A865A86D4FF0010800F080501C
:101AA00000904E480168C90511D40168814641F48F
:101AB00080710160FFF7F8FA074604E0FFF7F4FAD7
:101AC000C01B022834D8D9F80000C005F6D5A0689C
:101AD000012815D00528D5F8900016D020F0010077
:101AE000C5F89000D5F8900020F00400C5F89000EB
:101AF000A06841F28839B8B1FFF7D6FA07460EE080
:101B0000D5F8900040F00100F0E740F00400C5F87F
:101B10009000F5E7FFF7C8FAC11B494508D8D5F88A
:101B200090008007F6D50DE0FFF7BEFA074605E006
:101B30007BE0FFF7B9FAC11B494576D8D5F890008C
:101B40008007F6D4B8F1000F03D0A86D20F08050C4
:101B5000A8652078800627D5606A0028D5F8980007
:101B600011D040F00100C5F89800FFF79DFA074634
:101B700004E0FFF799FAC01B02287CD8D5F898003A
:101B80008007F6D510E020F00100C5F89800FFF7B7
:101B90008BFA074604E0FFF787FAC01B02286AD8D1
:101BA000D5F898008007F6D4A06AE8B30C2E6AD066
:101BB0000228286820F08070286004D0286810F07F
:101BC000205F47D04AE0FFF76FFA06460DE00000BD
:101BD00000100240343B000800000020007000406C
:101BE000FFF762FA801B022845D828688001F7D4E5
:101BF000206B54F82C1F000110380843218A234A17
:101C0000490802EB4151A26841EA02210843217DC3
:101C10004FF07E42490802EB41610843217B40EAD4
:101C2000C160E860286801E02BE024E040F08070AB
:101C30002860E86840F08070E860FFF735FA0446F5
:101C400004E0FFF731FA001B022814D8286880014D
:101C5000F7D516E0E86820F00300E860E8680C4972
:101C60000840E860FFF720FA044607E0FFF71CFA97
:101C7000001B022802D90320BDE8F88328688001F0
:101C8000F4D40020F8E70120F6E700000000E0FFB0
:101C9000FFFFEEFE2DE9F041040005D00025A5620E
:101CA00094F85D0018B107E00120BDE8F08184F8E8
:101CB0005C50204600F044F8022684F85D602068FD
:101CC000016821F040010160E0684FF4E062904259
:101CD00001D9002101E04FF48051B0F5706F02D0BE
:101CE000904200D0A562276B012327B9904201D909
:101CF000266300E02363D4E901021043D4E90426FB
:101D000032431043228B02F400721043E269104305
:101D1000226A1043A26A104322681060626B606AF4
:101D2000A66910430427E26807EA164632431043C7
:101D3000084321684860256684F85D300020B4E7D8
:101D4000114800B5C16C87B041F00201C164C16C9B
:101D500001F002010591816D41F400418165806DC2
:101D6000694600F400400590282000900220019070
:101D70000120029003200390062004900348FFF7FF
:101D8000AFF807B000BD000000100240000400489A
:101D90002DE9F84F044690F85C0000261D46904659
:101DA000894601280ED04FF0010B84F85CB0FFF794
:101DB0007BF9074694F85D004146B246012804D0FD
:101DC0000226A0E0022000F0A4B8B9F1000F71D003
:101DD000B8F1000F6ED0032084F85D00C4F860A055
:101DE000C4F83890A4F83C80A4F83E80C4F840A021
:101DF000A4F844A0A4F846A0C4F850A0C4F84CA08D
:101E0000A068B0F5004F04D12068026842F4804217
:101E1000026020680268520603D4026842F0400261
:101E20000260E068B0F5E06F606822D908B101296E
:101E30001BD1A06B21680088C86006E0206881681B
:101E4000890709D5A16B0988C160A06B801CA063BC
:101E5000E08F401EE08708E0FFF726F9C01BA8428C
:101E600002D3681C01D045E0A5B3E08F0028E5D17E
:101E700035E008B101292FD1E08F0128A06B03D9EB
:101E800021680088C8600FE021680078087314E0BA
:101E9000E08721E020688168890714D5E18F012956
:101EA000A16B08D90988C160A06B801CA063E08F7A
:101EB000801EEDE726E009780173A06B401CA0634B
:101EC000E08F401EE4E7FFF7EFF8C01BA84202D303
:101ED000681C01D00EE06DB1E08F0028DAD13A46DF
:101EE0002946204601F0E4F808B120202066A068C9
:101EF00010B105E0032606E02068C1688068009004
:101F0000206E00B1012684F85DB084F85CA03046F4
:101F100059E718BCBDE8E08F4FF0E02104280869BC
:101F200003D020F004000861704740F00400FAE795
:101F300010B5401EB0F1807F01D3012010BD4FF0DD
:101F4000E02460610F21601700F01DFF0020A061F8
:101F500007202061002010BD70477047704710B502
:101F6000040003D094F83D0010B107E0012010BD3B
:101F7000002084F83C00204600F00CF8022084F891
:101F80003D00211D206801F0C5F9012084F83D00C5
:101F9000002010BD08B500680B49884212D10B48DB
:101FA000816D41F002018165806D032200F0020025
:101FB000009001211D20FFF7B9F8BDE808401D2061
:101FC000FFF7A9B808BD000000040040001002405F
:101FD0000168CA6842F00102CA6000688268074965
:101FE0000A40062A08D082680A40B2F5803F03D032
:101FF000016841F001010160002070470700010005
:102000000168CA6822F00102CA600068016A41F2F0
:102010001112114207D1016A9210114203D10168D5
:1020200021F00101016000207047704770B504463F
:10203000006801694FF00005C943890715D4C168DC
:10204000C943890711D4E91E016101202077206866
:1020500080698007204602D0FFF7E7FF04E000F028
:10206000A7F8204600F0A5F8257720680169C94344
:10207000490717D4C168C943490713D46FF0040155
:102080000161022020772068806910F4407F20469B
:1020900002D0FFF7CAFF04E000F08AF8204600F003
:1020A00088F8257720680169C943090716D4C168F3
:1020B000C943090712D46FF0080101610420207799
:1020C0002068C0698007204602D0FFF7AEFF04E019
:1020D00000F06EF8204600F06CF825772068016962
:1020E000C943C90617D4C168C943C90613D46FF0E0
:1020F00010010161082020772068C06910F4407F3A
:10210000204602D0FFF791FF04E000F051F820468E
:1021100000F04FF8257720680169C943C90708D145
:10212000C168C943C90704D1891E0161204600F076
:1021300041F820680169C943090609D4C168C94347
:10214000090605D46FF0800101612046FFF705FF05
:1021500020680169C943C90509D4C168C943090692
:1021600005D46FF4807101612046FFF7F5FE206809
:102170000169C943490609D4C168C943490605D460
:102180006FF040010161204600F022F820680169EB
:10219000C94389060BD4C168C943890607D46FF0C7
:1021A000200101612046BDE87040FFF7D7BE70BD39
:1021B000704770470449884205D104480178491C9A
:1021C0000170012141707047A0060020120000201C
:1021D00070477047704700002DE9F04102680446DF
:1021E000D0691168936810F00F0F4FF000055BD0B5
:1021F00003F0010601F49077374369D0C70707D091
:10220000CF0505D501271762626F42F001026267B0
:10221000820708D5DA0706D0276802223A62626F81
:1022200042F004026267420708D5DA0706D0236845
:1022300004221A62626F42F00202626702070AD544
:1022400001F02002324306D0236808221A62626F2E
:1022500042F008026267626F002A32D0800605D51C
:10226000880603D5216E09B120468847606F0007B4
:1022700003D420688068400625D5204601F046F941
:1022800020688168490619D5816821F04001816084
:10229000E06E98B120498163E06EFEF7F9FD0028F9
:1022A0000FD0E06E816B06E0860611D58E060FD545
:1022B000216E1EE02046BDE8F04108472046FFF7AA
:1022C00089FFBDE8F0812046FFF784FF6567F8E7E6
:1022D000C60209D55B0207D54FF480101062204674
:1022E000BDE8F041FFF775BF030605D50B0603D522
:1022F000616E0029DED1E4E74006E2D54806E0D56C
:102300001168204621F040011160202184F87110ED
:10231000656600F0E4F8D4E7F934000810B504006D
:1023200003D094F8710010B107E0012010BD002027
:1023300084F87000204600F027F8242084F871000B
:102340002068016821F001010160204601F0EEF8EB
:102350000128EBD0606A10B1204601F03BF82068FC
:10236000416821F4904141602068816821F02A0190
:1023700081602068016841F0010101602046BDE8EC
:10238000104001F08BB8000010B50068164986B007
:10239000884227D11548C16C41F00101C164C16C6C
:1023A00001F001010591016E41F480410166006E6A
:1023B000012100F4804005904FF40070009002204D
:1023C000CDE90101039007204FF090440490694645
:1023D0002046FEF785FD4FF4806100916946204656
:1023E000FEF77EFD06B010BD00380140001002402F
:1023F0002DE9F84F044690F87200984616460D46AF
:10240000202867D1FDB1F6B194F87000012861D0A1
:10241000012084F870004FF00009C4F87490222065
:1024200084F872005434FEF73FFEA6808246E680B0
:1024300054F84C0C4FF48057FF21543CB84208D15B
:10244000206918B10DE0012000F046B840F2FF10FD
:102450000DE07F2218B1B0F1805F05D009E020695E
:1024600050B9A4F85C1004E0206928B13F20A4F81A
:102470005C00B4F85C601CE0A4F85C20F9E753460B
:10248000002220212046CDF8008001F0ADF908B1EE
:102490000320D9E7A068B84201D12069A0B1206823
:1024A000808C304005F8010BB4F85A00401EA4F8A7
:1024B0005A00B4F85A000028E1D1202084F87200B4
:1024C00084F870900020BFE72068808C304025F8A9
:1024D000020BE9E70220B7E718BCBDE8E08F7047C0
:1024E000FEE7000030B5164887B0C16C41F004012A
:1024F000C164C16C01F004010591C16C41F0080197
:10250000C164C06C002500F0080005904FF4E06045
:10251000CDE9000502200324CDE9020469460948FB
:10252000FEF7DEFC4FF40050CDE900050120CDE9B7
:10253000020469460448FEF7D3FC07B030BD000032
:1025400000100240000C0048000800482DE9F0414E
:1025500007461C4615460E462A2000F089FB380A1D
:1025600000F094FBF8B200F091FB280A00F08EFB1B
:10257000E8B200F08BFB2B2000F07AFB300A00F071
:1025800085FBF0B200F082FB200A00F07FFBE0B296
:1025900000F07CFBBDE8F0412C2000F069BB00009E
:1025A00070B5050AC4B2EF2300211A460846FFF7AA
:1025B000CDFF0F4900204FF4107201F8105001EBCD
:1025C0004003401C80B25C709042F6D3012210217F
:1025D0000848FEF764FD00244FF49065294604483E
:1025E00000F026FA641CA4B2642CF7D370BD00007E
:1025F00054010020000400482DE9FE4F0025171A61
:102600002C462E4699421BD1FFF7A0FF3049314896
:102610000A88110AD2B205E000F8161000EB460352
:10262000761C5A70B742F7D8012210212A48FEF7CB
:1026300036FD03B0790000F051B8264800F0F8B933
:102640005A1A834690468A464FF0FF30002F02DD2B
:102650004FF0010102E003D14FF00001019102E0CF
:10266000C7F100070190B8F1000F02DD4FF0010043
:1026700002E003D14FF00000009002E0C2F1000838
:1026800000904046474501DD3E4600E00646701C8E
:102690004FF00009029015E01FFA8AF11FFA8BF043
:1026A00000F08EF83D444444B54202DD0199AD1B73
:1026B0008B44B44202DD0099A41B8A4409F1010055
:1026C0001FFA80F902998945E6DD00F00CB8000098
:1026D0000E000020540100200004004830BCBDE87A
:1026E000C04FFFF7AABF1EBCBDE8E08F2DE9FC5F1D
:1026F00080460024154603200F46A0EB450657E010
:10270000A7EB0409A8EB050A1FFA89F11FFA8AF062
:1027100000F056F808EB050001901FFA89F180B22D
:1027200000F04EF8781981B2A8EB040B00901FFA64
:102730008BF000F045F81FFA89F11FFA8AF000F0DB
:102740003FF8A7EB05091FFA89F11FFA8BF000F09B
:1027500037F8019807EB040B1FFA8BF180B200F0F9
:102760002FF81FFA89F108EB04091FFA89F000F02D
:1027700027F8009881B21FFA89F000F021F81FFABB
:102780008BF11FFA8AF000F01BF8641C002E03DAAC
:1027900006EB8406B61D04E0601B06EB80066D1E8A
:1027A0000A36781981B208EB040080B200F008F80C
:1027B000AC42A5DD00F000B83CBCBDE8C09F000005
:1027C00010B50B460246FFF7C1FE03480088BDE87E
:1027D000104000F069BA00000E00002030B5254816
:1027E00087B0C16C41F00201C164C16C01F002010B
:1027F0000591C16C41F00801C164C06C1E4C00F031
:1028000008000590D0200090012001900290022045
:10281000039069462046FEF763FB0022D021204644
:10282000FEF73DFC8021154D009169462846FEF7D4
:1028300057FB002280212846FEF731FC0022802130
:102840002846FEF72CFC002280212046FEF727FCBC
:10285000002240212046FEF722FC782001F038F8C3
:10286000012240212046FEF71AFC00F0F1FB07B0E0
:1028700030BD00000010024000040048000C004879
:1028800010B5FFF7ABFF782001F022F8112000F01F
:10289000EFF9782001F01CF8362000F0E9F900206B
:1028A00000F0F4F93A2000F0E3F9652000F0EEF9C9
:1028B000B22000F0DDF90C2000F0E8F90C2000F067
:1028C000E5F9002000F0E2F9332000F0DFF93320D1
:1028D00000F0DCF9B72000F0CBF9722000F0D6F957
:1028E000BB2000F0C5F93D2000F0D0F9C02000F079
:1028F000BFF92C2000F0CAF9C22000F0B9F901207C
:1029000000F0C4F9C32000F0B3F9192000F0BEF9BB
:10291000C42000F0ADF9202000F0B8F9C62000F086
:10292000A7F90F2000F0B2F9D02000F0A1F9A420FF
:1029300000F0ACF9A12000F0A9F9E02000F098F92E
:10294000D02000F0A3F9042000F0A0F90D2000F041
:102950009DF9112000F09AF9132000F097F92B202F
:1029600000F094F93F2000F091F9542000F08EF926
:102970004C2000F08BF9182000F088F90D2000F0B1
:1029800085F90B2000F082F91F2000F07FF9232049
:1029900000F07CF9E12000F06BF9D02000F076F92E
:1029A000042000F073F90C2000F070F9112000F001
:1029B0006DF9132000F06AF92C2000F067F93F2030
:1029C00000F064F9442000F061F9512000F05EF954
:1029D0002F2000F05BF91F2000F058F91F2000F0B5
:1029E00055F9202000F052F9232000F04FF9212062
:1029F00000F03EF9292000F03BF9EF2300211A46B0
:102A00000846FFF7A3FD4FF6FF70FFF7C9FD01224F
:102A1000BDE8104080210148FEF741BB000400489A
:102A20000346012000E05843491EC9B2FBD270475B
:102A30002DE9F04105464FF6FF70B1FBF0F70E4669
:102A4000002480460FE007D1B6FBF8F108FB1161C6
:102A5000C4EB0440284403E0C4EB0440284441464E
:102A600000F01CFB641CBC42EDD9BDE8F081000005
:102A70002DE9F05F203AD5B21C46F022A2EB5402B9
:102A8000824256D3C4F1F0028A4252DB0A19521E26
:102A900093B200EB5402521E92B2FFF757FD3F4F24
:102AA000102C15D0202C13D00C2C44D0182C40D135
:102AB0003B4905EB45004FF0300A002401EB0019BB
:102AC000B84619F80460E00752D0042700255EE0FC
:102AD000600700D0012000EBD400610810FB01F07A
:102AE00000F0FF0B2F48002600EB051A00F5BE5042
:102AF00000EBC519B8461AE0102C09D0202C18D1CB
:102B000019F806500027280605D5B8F8000004E09B
:102B10001AF80650F6E7B8F8020000F0C5F86806A3
:102B20007F1C050EFFB2082FEDD3761CF6B25E4572
:102B3000E2D300F03BB81C4805EB45014FF00C090F
:102B4000002600EB8108002418F80650280601D55D
:102B5000388800E0788800F0A7F86806641C050E45
:102B6000E4B2062CF2D3761CF6B24E45EBD3E0E786
:102B70000827ABE7300602D5B8F8000001E0B8F846
:102B8000020000F091F87006060E6D1CEDB2BD4219
:102B9000F0D3641CE4B2544593D3CAE70E0000207E
:102BA000E0450008F03F00087C3B000830BCBDE871
:102BB000C09F2DE9F05F0027DDF828A01D46914653
:102BC0008B4680463C464FEA5A0623E0281B401EAF
:102BD000C1B20A20FFF724FFB9FBF0F00A21B0FBD5
:102BE000F1F201FB120027B9691E8C4201DA38B1FB
:102BF00001273030C2B206FB048080B2534604E0A5
:102C000006FB048080B2534620225946FFF730FF6E
:102C1000641CE4B2AC42D9D300F000B830BCBDE8CB
:102C2000C09F2DE9F047044600F0FF0810190D463B
:102C3000DDE908761FFA80FA58191FFA80F90FE0CB
:102C4000544502D3E819444685B24D450DD23B4662
:102C500029462046FFF70CFF04EB570084B2761C90
:102C60003278A2F120005E28EAD9BDE8F0870000A2
:102C700001B5002210210448FEF711FA012168462F
:102C8000FFF7D6FE08BD00000004004801B5012290
:102C900010210448FEF703FA01216846FFF7C8FE39
:102CA00008BD00000004004808B500210091010A99
:102CB0008DF800108DF80100012210210348FEF765
:102CC000EEF902216846FFF7B3FE08BD0004004894
:102CD00030B50F4887B0C16C41F01001C164C06CC1
:102CE0004FF4607400F0100005900120CDE9004021
:102CF00002900220074D039069462846FEF7F0F83F
:102D0000012221462846FEF7CAF907B030BD00006F
:102D1000001002400010004800EB8100006E00F03F
:102D2000F84070478068C0F3C00070478068C0F307
:102D3000000070478068C0F3800070478068C0F36F
:102D400080007047C06810F4406F01D000207047C9
:102D500001207047042310B503EAD1531844C1F38E
:102D6000045107248C4043698A40A34313434361C1
:102D700010BD00EB8100016E21F00041114301669E
:102D80007047FEE770470907090E002806DA00F0D1
:102D90000F0000F1E02080F8141D704700F1E020E2
:102DA00080F80014704770472DE9F041434E054606
:102DB0008846F0680024810728680ED0F16801F089
:102DC0000301814207D130B1F0686968C0F3021095
:102DD000401C88421FD001246DE0012809D0022840
:102DE0000AD00328F7D13168890309D4316849032F
:102DF00004E03168890701E0316849050029EADA11
:102E0000F1686A686FF00F0321F0730103EB02129F
:102E100011430143F160306820F080603060FEF7BC
:102E200043F9074604E0FEF73FF9C01B022838D8F3
:102E300030680001F7D474BBB8F1000F18D0B8F1B6
:102E4000010F1DD0287D4FF07E41400801EB40600E
:102E5000A96840EA01203169194A114008433061EC
:102E6000306840F080603060FEF71EF907461AE0D7
:102E7000A868297B000240EAC1603169114AECE789
:102E8000288A1149400801EB4050A96840EA012016
:102E900031690E4AE1E70EE0FEF706F9C01B022891
:102EA00001D9032407E030680001F5D51CB9306969
:102EB000A969084330612046BDE8F0810010024056
:102EC000FF80FFF9FF80FF070000E0FFFF809FFF0A
:102ED0002DE9F0413C4E05468846F0680024810704
:102EE00028680ED0F16801F00301814207D130B1AA
:102EF000F0686968C0F30210401C88421FD00124AA
:102F00005EE0012809D002280AD00328F7D13168F1
:102F1000890309D43168490304E03168890701E075
:102F2000316849050029EADAF1686A686FF00F0331
:102F300021F0730103EB021211430143F160306889
:102F400020F080503060FEF7AFF8074604E0FEF74F
:102F5000ABF8C01B022829D830688000F7D434BBF6
:102F6000B8F1000F15D0287C4FF07E41400801EBEE
:102F70004060A96840EA01207169144A1140084381
:102F80007061306840F080503060FEF78DF8074681
:102F90000EE0A868297B000240EAC16071690C4A12
:102FA000ECE7FEF781F8C01B022801D9032407E0F3
:102FB00030688000F5D51CB9706969690843706193
:102FC0002046BDE8F081000000100240FF80FFF9BC
:102FD000FF80FF07F8B51C4E05460024B06DC00009
:102FE00002D5FEF709F90DE0B06D40F08050B065F4
:102FF000B06D00F080500090FEF7FEF8B16D21F04A
:103000008051B165B0F5007F04D0802D07D94FF015
:1030100003040AE0802D08D9A02D01D804E001D1D5
:10302000022402E0702D00D101240848016821F03B
:10303000070121430160006800F00700A04201D0B1
:103040000120F8BD0020F8BD001002400020024021
:1030500010B5114C0F484FF4E06120604FF48270BE
:1030600060600020C4E90201022121610121616147
:103070004902C4E9061020626062A0620720E06293
:103080002046FEF707FE2068016841F0400101601C
:1030900010BD0000003C0040D40500200A46014657
:1030A0004FF47A730148FEF773BE0000D405002088
:1030B000F8B515460E460B460092044600224FF422
:1030C000C05100F019F888B933460022802120460B
:1030D000009500F05CF848B9334600224FF4C06117
:1030E0002046009500F008F8002804D0206E40F03B
:1030F000200020660320F8BD2DE9F0471D46164646
:103100000F4604464FF4C069DDF820800CE04F45BF
:1031100001D106B9007B681C06D0FDF7C5FFA0EB06
:103120000800A84208D23DB1206881683940B14208
:10313000EDD10020BDE8F0872068416821F0E00172
:1031400041606068B0F5827F0BD1A068B0F5004F98
:1031500002D0B0F5806F04D12068016821F04001F1
:103160000160A06AB0F5005F09D12068016821F410
:10317000005101602068016841F4005101600120A4
:1031800084F85D00002084F85C000320D2E72DE97C
:10319000F0411D4617460E460446DDF8188008E04B
:1031A000681C06D0FDF780FFA0EB0800A8420BD2F8
:1031B00055B12068806836EA000030D00020B8425F
:1031C000EED10020BDE8F0812068416821F0E001E7
:1031D00041606068B0F5827F0BD1A068B0F5004F08
:1031E00002D0B0F5806F04D12068016821F0400161
:1031F0000160A06AB0F5005F09D12068016821F480
:10320000005101602068016841F400510160012013
:1032100084F85D00002084F85C000320D2E70120E0
:10322000CDE77047FDF746BF1A4810B5816D98B0DD
:1032300041F080518165806D012100F08050169031
:103240000804CDE90010022003240A90CDE90B41C7
:1032500014210D910721CDE90E1010906846FEF75C
:10326000C1FA00B1FEE70F20CDE911040020139050
:1032700014901590042111A8FEF7AAF900B1FEE7F9
:103280004FF40070FDF784FF002800D0FEE718B06F
:1032900010BD0000001002400D48016841F47001AB
:1032A00001600C48016841F001010160002181606A
:1032B0000268094B1A4002608214C260026822F45C
:1032C0008022026081610249C00380390860704732
:1032D00088ED00E000100240FFFFF6EA0148FEF72B
:1032E000A5BE0000A0060020094A10B5074BC2E9A0
:1032F00000310021C2E9021010461161FEF72FFED5
:10330000BDE810400248FEF763BE00000004004024
:10331000A00600202DE9F0470268264C264D274ED6
:10332000274F284B4FF0804AA04209D0504507D084
:10333000A84205D0B04203D0B84201D0984204D18F
:1033400022F0700C4A6842EA0C02DFF87CC0DFF819
:103350007C80DFF87C90A0420FD050450DD0A84271
:103360000BD0B04209D0B84207D0984205D0604592
:1033700003D0404501D0484503D122F44075CA68C6
:103380002A434D6922F080022A4302608A68C262A1
:103390000A688262A04207D0984205D0604503D0F7
:1033A000404501D0484501D10969016301214161CE
:1033B000BDE8F087002C01400004004000080040F8
:1033C000000C004000340140004001400044014036
:1033D0000048014090F82410C90706D001684A68E7
:1033E000836A22F400321A434A6090F82410890755
:1033F00006D501684A68C36A22F480321A434A60DB
:1034000090F82410490706D501684A68036B22F436
:1034100080221A434A6090F82410090706D50168F3
:103420004A68436B22F400421A434A6090F8241021
:10343000C90606D501688A68836B22F480521A4354
:103440008A6090F82410890606D501688A68C36BE3
:1034500022F400521A438A6090F82410490611D5CC
:1034600001684A68036C22F480121A434A60016CB6
:10347000B1F5801F06D101684A68436C22F4C0028E
:103480001A434A6090F82410090606D501684A6874
:10349000806C22F4002202434A607047F8B5002590
:1034A00004464567FDF700FE0746206800686FF098
:1034B0007E46000708D53B4600224FF40011204607
:1034C000009600F091F960B92068006840070AD5BD
:1034D0003B4600224FF480012046009600F084F91C
:1034E00008B10320F8BD202084F8710084F8720030
:1034F00084F870500020F8BD10B5806A0021A0F853
:103500005A10A0F85210FEF765FE10BD01680A6857
:1035100022F490720A6001688A6822F001028A60CF
:10352000202180F872100021016670472DE9F047D4
:10353000044600682369A168D4F81CC01943636974
:103540001025002643EA0C0319439B4A03683746BB
:10355000DFF868C203EA0C030B430360206841688C
:10356000E36821F44051194341602168A069914208
:1035700001D0236A18438B6823F4306303438B60C4
:103580008F4B21688F4899420DD1D0F8880010F0F8
:10359000030006D001285AD0022856D0032859D15A
:1035A00057E0012556E0884B99420BD1D0F88800AE
:1035B00010F00C0047D0042849D0082845D00C282A
:1035C00048D146E0814B99420BD1D0F8880010F0E9
:1035D000300038D010283AD0202836D0302839D1C1
:1035E00037E07B4B99420BD1D0F8880010F0C00037
:1035F00029D040282BD0802827D0C0282AD128E0E5
:10360000744B99420ED1D0F8880010F440701AD053
:10361000B0F5807F1BD0B0F5007F16D0B0F5407FAD
:1036200018D116E0914215D1D0F8880010F440600E
:1036300009D0B0F5806F0AD0B0F5006F05D0B0F5B5
:10364000406F07D105E0002504E0022502E00425D3
:1036500000E00825604B4FF000084FF40040914215
:1036600044D135B1022D07D0042D07D0082D10D13B
:1036700007E0FEF73FF803E0184602E0FEF75EF8C9
:1036800098B3626802EB4201814202D8B0EB023F7C
:1036900001D9012789E065B1022D0DD0042D13D089
:1036A000082D1BD001274D49A6F5407088427AD9D4
:1036B000EFE7FEF71FF809E05008494B11E000233F
:1036C000FCF7E5FD0646EEE7FEF738F86268010E06
:1036D00005025008281841EB0801F0E750084FF4A4
:1036E0000003C01848F10001E9E75EE0E1694FF628
:1036F000EF7981422ED1092D1DD2DFE805F00508B2
:10370000121C151C1C1C1800FDF7F4FF01E0FEF74D
:1037100003F84100606801EB5001B1FBF0F086B2A4
:103720000AE030496068F6E7FEF708F8F1E74FF481
:1037300080316068EFE70127A6F110004845A8D85E
:103740004FF6F07106EA0100C6F342010843216812
:10375000C8602AE0092D21D2DFE805F00508122013
:10376000162020201A00FDF7C5FF01E0FDF7D4FF69
:103770000146606801EB5001B1FBF0F086B20EE04B
:10378000606803EB5001F7E7FDF7D8FFF0E70AE0C8
:10379000616800EB5100B0FBF1F0EFE70127A6F103
:1037A0001000484584D82068C660C4F86080384658
:1037B000C4F86480BDE8F08700800040F369FFEF43
:1037C0000038014000100240004400400048004022
:1037D000004C0040005000400024F400FFFC0F00AB
:1037E000000024F40048E8012DE9F0411E46174688
:1037F00088460446069D1CE0681C1AD025B1FDF7DA
:1038000053FC801BA84214D92068016821F4D071B0
:1038100001602068816821F001018160202084F826
:10382000710084F87200002084F870000320BDE865
:10383000F0812068C16938EA010004D00020B84254
:10384000DAD00020F3E70120F9E7000038B5184886
:103850000068C069C043800622D44FF47A73012205
:1038600069461348FEF7C4FD124A1088010417D4B4
:1038700041049DF800104FF0000304D50A290ED131
:1038800040F4004012E00D290ED0C0F30D04084DA5
:10389000401CC83D80B229551080C72800D913802C
:1038A0000348FEF799FC38BD40F480401080F7E7EC
:1038B000DC0000200C000020FEE7704710B5044635
:1038C0000420FEF729FB0148046010BD0800002019
:1038D00070B5054600244FF47A7603E0304600F0D8
:1038E00005F8641CAC42F9D370BD000070B54FF010
:1038F000E02500216C69094AAB6912685043AA6946
:103900009A42FCD002D2A3EB020302E0A4EB02062F
:103910003344194413468142F1D370BD080000209E
:103920002DED048BADF5727DFDF7CCFBFFF77CFC34
:103930005020FFF7C3FF4FF4E13000F0D3F84F21E0
:103940000920FFF7D1FCFFF7C3F9FEF799FFFEF757
:10395000C9FDFCF77DFDFCF7B7FDDFF86081DFED09
:10396000589A9FED589A584D02AE002798F80010CB
:1039700001290CD188F80070FCF7E8FD00EE100A70
:103980002878B8EE400A06EB800080ED000A28781F
:10399000E628EBD34D48FEF733FBFCF795FD9DED94
:1039A000020A2F7020EE090A60EE298AB0EE688ABA
:1039B000287806EB800191ED000A20EE090A20EE3E
:1039C000290A81ED000AB4EEE80AF1EE10FA01DDF1
:1039D000F0EE408AB4EEC80AF1EE10FA01D2B0EE71
:1039E000408A401CC0B22870E628E1D338480C2435
:1039F0002346078037A0CDE9004014220F21002084
:103A0000FFF70FF9BCEEE80A04231B2110EE102A81
:103A100000200094FFF7CDF82FA0CDE900400C2343
:103A20001422C6210020FFF7FCF8BCEEC80A0423CC
:103A3000D22110EE102A00200094FFF7BAF89FED73
:103A4000270A2F70287806EB8001401C91ED001AA0
:103A5000C0B2E628C1EE090A60EE800AC1ED000A94
:103A60002870EFD30A209FED1E8A2870C0B206EBA3
:103A7000800191ED010A38EE400ABCEEC00A10EE5A
:103A8000102A91ED000A93B238EE400A421CBCEEB7
:103A9000C00A10EE101A89B2FEF7AEFD2878401C5D
:103AA000C0B22870E528E1D32F704FF47A70FFF789
:103AB0000FFF0648FEF78CFA58E7000013000020BD
:103AC0000000803900404E4512000020A006002072
:103AD0000E0000206D6178006D696E0000005C438F
:103AE0000000664310B50F4C0D49C4E900100020DA
:103AF000A060E0602061A0610C2060612046FEF7BC
:103B00000DFC2068016841F0200101602520FDF7CF
:103B100002FB0322BDE8104011462520FDF706BB3D
:103B200000380140DC0000204FF04070E1EE100A48
:103B300070470000000000000000000001020304C4
:103B400006070809A0860100400D0300801A060040
:103B500000350C0040420F0080841E0000093D002B
:103B600000127A000024F40000366E010048E801DB
:103B7000006CDC02000000000102030400000000F1
:103B80000000000000000000000020202020200095
:103B90000020000028285000000000000000000065
:103BA00000005050F85050F850500000002070A80D
:103BB000A0603028A8702000000048A8B0A8743485
:103BC0005448000000002050506CA8A894680000E1
:103BD000404080000000000000000000081010209D
:103BE000202020201010080040202010101010105D
:103BF0002020400000000020A87070A820000000D5
:103C000000000010107C10100000000000000000F8
:103C100000000000404080000000000000FC0000A8
:103C20000000000000000000000000000040000054
:103C30000004080810102020404080000000708818
:103C4000888888888870000000002060202020205C
:103C500020700000000070888810204080F800006C
:103C600000007088083008088870000000001030DC
:103C7000305090F8103800000000F88080F088087C
:103C8000887000000000304880B0C888887000004C
:103C9000000078081010202020200000000070880C
:103CA000887088888870000000007088889868088C
:103CB00090600000000000002000000000200000D4
:103CC000000000000020000000202000000008107C
:103CD000204040201008000000000000FC00FC0014
:103CE00000000000000040201008081020400000E4
:103CF0000000708888102020002000000000384458
:103D000094B4B4B8443800000000202030505078FB
:103D100048CC00000000F0484870484848F00000D7
:103D20000000788880808080887000000000F04863
:103D30004848484848F000000000F848507050409B
:103D400048F800000000F8485070504040E0000083
:103D50000000384880809C88483000000000CC4833
:103D60004878484848CC00000000F8202020202057
:103D700020F8000000007C1010101010101090E0CF
:103D80000000EC485060504848EC00000000E04063
:103D90004040404044FC00000000DCD8D8D8A8A82F
:103DA000A8AC00000000DC486868585848E80000EB
:103DB0000000708888888888887000000000F048BB
:103DC0004870404040E0000000007088888888E823
:103DD000987018000000F0484870504848EC000007
:103DE000000078888060100888F000000000F8A8C3
:103DF00020202020207000000000CC48484848487F
:103E0000483000000000CC484850503020200000CE
:103E10000000A8A8A8A87050505000000000D8507A
:103E20005020205050D800000000D8505050202082
:103E3000207000000000F8901020204048F800009A
:103E40003820202020202020202038000040402042
:103E50002020101010080800701010101010101002
:103E60001010700020500000000000000000000052
:103E70000000000000000000000000FC40200000E6
:103E80000000000000000000000000000030483882
:103E9000483C000000C04040407048484870000066
:103EA00000000000003848404830000000180808B2
:103EB00008384848483C00000000000000304878BE
:103EC00040380000001824202078202020780000AE
:103ED00000000000003C48304038443800C04040FA
:103EE0004070484848EC000000202000006020207E
:103EF000207000000010100000301010101010E0B2
:103F000000C040404058506050C8000000E02020F1
:103F10002020202020F800000000000000F0A8A8C9
:103F2000A8A800000000000000F0484848EC00008D
:103F30000000000000304848483000000000000049
:103F400000F04848487040E0000000000038484851
:103F50004838081C0000000000D8604040E0000025
:103F600000000000007840300878000000000020C9
:103F700020782020203800000000000000D84848A9
:103F8000483C00000000000000D8505020200000F5
:103F90000000000000A8A8705050000000000000C1
:103FA00000D8502050D800000000000000CC484845
:103FB000301020C0000000000078102020780000A1
:103FC00018101010103010101010180010101010D1
:103FD0001010101010101010602020202010202031
:103FE0002020600068900000000000000000000039
:103FF00000000000000000000000000000000000C1
:104000000000001010101010101000001010000020
:1040100000122424480000000000000000000000FE
:104020000000001212127E2424247E242424000086
:104030000000083C4A4A48380C0A0A4A4A3C080828
:1040400000000044A4A8A8B0541A2A2A4A44000038
:1040500000000030484848506EA4949889760000CB
:104060000060202040000000000000000000000070
:1040700000020408081010101010100808040200B4
:104080000040201010080808080808101020400000
:10409000000000001010D63838D6101000000000C4
:1040A00000000000000808087F0808080000000061
:1040B0000000000000000000000000006020204020
:1040C00000000000000000007E0000000000000072
:1040D0000000000000000000000000006060000020
:1040E00000000204040408081010102020404000C2
:1040F000000000182442424242424242241800007A
:10410000000000083808080808080808083E0000F1
:104110000000003C4242420204081020427E00009F
:104120000000003C4242020418040242423C0000EB
:10413000000000040C0C142424447F04041F00001D
:104140000000007E404040784402024244380000B3
:10415000000000182440405C62424242221C0000E1
:104160000000007E42040408081010101010000027
:104170000000003C4242422418244242423C0000DB
:104180000000003844424242463A0202241800002D
:1041900000000000000018180000000018180000BF
:1041A00000000000000000100000000000101010CF
:1041B0000000000204081020402010080402000043
:1041C0000000000000007E00007E000000000000F3
:1041D00000000040201008040204081020400000E5
:1041E0000000003C42426204080808001818000061
:1041F00000000038445AAAAAAAAAAA5C423C0000BD
:104200000000001010182828243C444242E7000017
:10421000000000F8444444784442424244F800001C
:104220000000003E4242808080808042443800008E
:10423000000000F8444242424242424244F8000038
:10424000000000FC424848784848404242FC0000D8
:10425000000000FC424848784848404040E00000E8
:104260000000003C44448080808E84444438000038
:10427000000000E7424242427E42424242E70000E2
:104280000000007C1010101010101010107C0000A6
:104290000000003E0808080808080808080888F018
:1042A000000000EE444850705048484444EE00007E
:1042B000000000E0404040404040404042FE0000DE
:1042C000000000EE6C6C6C6C6C54545454D60000BE
:1042D000000000C7626252524A4A4A4646E2000063
:1042E0000000003844828282828282824438000048
:1042F000000000FC424242427C40404040E000005E
:104300000000003844828282828282B24C380600E9
:10431000000000FC4242427C4848444442E3000022
:104320000000003E4242402018040242427C00004D
:10433000000000FE92101010101010101038000035
:10434000000000E74242424242424242423C0000F8
:10435000000000E7424244242428281810100000DE
:10436000000000D654545454546C282828280000C7
:10437000000000E7422424181818242442E7000013
:10438000000000EE444428281010101010380000DF
:104390000000007E840408081020204242FC000037
:1043A000001E1010101010101010101010101E0011
:1043B000000040202020101010080804040402020D
:1043C000007808080808080808080808080878009D
:1043D00000182400000000000000000000000000A1
:1043E000000000000000000000000000000000FFCE
:1043F000006010000000000000000000000000004D
:104400000000000000000038440C34444C3600002A
:1044100000000000C040405864424242645800001E
:10442000000000000000001C22404040221C000050
:10443000000000000602023E42424242463B0000AB
:10444000000000000000003C42427E40423C000070
:10445000000000000C12107C10101010107C0000E6
:10446000000000000000003E444438403C42423C12
:1044700000000000C040405C6242424242E700004F
:10448000000000303000007010101010107C000090
:104490000000000C0C00001C040404040404447814
:1044A00000000000C040404E4850704844EE0000FC
:1044B000000000107010101010101010107C000080
:1044C00000000000000000FE4949494949ED000094
:1044D00000000000000000DC6242424242E70000AF
:1044E000000000000000003C42424242423C00000A
:1044F00000000000000000D864424242645840E0DE
:10450000000000000000001A26424242261A02075C
:1045100000000000000000EE3220202020F8000003
:10452000000000000000003E42403C02427C0000CF
:10453000000000000010107C10101010120C000081
:1045400000000000000000C642424242463B00001C
:1045500000000000000000EE444428281010000075
:1045600000000000000000DB894A5A5424240000A7
:10457000000000000000007624181818246E0000C7
:1045800000000000000000E742242418181010600A
:10459000000000000000007E44081010227E000091
:1045A00000030404040404040804040404040300D1
:1045B000080808080808080808080808080808087B
:1045C00000C0202020202020102020202020C000FB
:1045D000205A04000000000000000000000000005D
:1045E00000000000000000000000000000000000CB
:1045F00000000000000000000000000000000000BB
:1046000000000000000000000000000000000000AA
:104610000000000000000000060006000600060082
:10462000060006000600020004000400040000006A
:104630000000000006000600060000000000000068
:1046400000000000066006600CC019801100220006
:10465000000000000000000000000000000000005A
:10466000000000000000000000000000000000004A
:10467000000000000000000008400840084008401A
:104680007FE07FE0104010801080108010807FE07D
:104690007FE020802080208020800000000000003B
:1046A000000000000000020002000F801AC032C0AB
:1046B00033C032001A000E0007000380038002C0DE
:1046C00032C03AC032C012800F0002000200000067
:1046D0000000000000000000708050808900890008
:1046E00089008A008A005C0075C005400A200A2003
:1046F000122012201220214021C0000000000000E2
:1047000000000000000000001C00360036003600EB
:1047100036003600340019E038805880CC80CC80D8
:10472000C680C700C31063903CE00000000000009A
:1047300000000000300038000800080010002000D1
:104740000000000000000000000000000000000069
:104750000000000000000000000000000000000059
:104760000000000000200040008001000100020065
:10477000020004000400040004000400040004001B
:104780000200020001000100008000400020000043
:104790000000000040002000100008000800040095
:1047A00004000200020002000200020002000200F7
:1047B0000400040008000800100020004000000071
:1047C00000000000000000000000000002000300E4
:1047D0000200623072F00B800F807AF062300200CB
:1047E00002000200000000000000000000000000C5
:1047F00000000000000000000000000000000200B7
:1048000002000200020002007FF00200020002002B
:104810000200020000000000000000000000000094
:104820000000000000000000000000000000000088
:104830000000000000000000000000000000000078
:1048400000000000300038000800080010002000C0
:104850000000000000000000000000000000000058
:1048600000000000000000007FE0000000000000E9
:104870000000000000000000000000000000000038
:104880000000000000000000000000000000000028
:104890000000000000000000000000000000000018
:1048A0000000000038003800380000000000000060
:1048B0000000000000200060004000C00080008078
:1048C00001000100020002000600040004000800CC
:1048D00008001000100030002000600040000000C0
:1048E000000000000000000000000F00198030C030
:1048F00030C0606060606060606060606060606088
:10490000606030C030C019800F000000000000005F
:104910000000000000000000000002003E00060051
:104920000600060006000600060006000600060057
:1049300006000600060006003FC000000000000060
:10494000000000000000000000001F00218040C0A7
:1049500060C060C000C00080018003000600040049
:1049600008001040204060407FC0000000000000B0
:10497000000000000000000000001E0063006180D5
:1049800061800180018003000E000180008000C072
:1049900000C060C060C061801F0000000000000017
:1049A0000000000000000000000001800180038082
:1049B00005800580098011801180218041807FF071
:1049C000018001800180018007E0000000000000FC
:1049D000000000000000000000003FC02000200098
:1049E0002000200020002F00318020C000C000C027
:1049F00060C060C0418021801F00000000000000F6
:104A000000000000000000000000078018C030C057
:104A1000300020006000678068C070606060606087
:104A200060602060304018C00F00000000000000EF
:104A3000000000000000000000001FE03060204087
:104A400020800080008001000100020002000200BE
:104A50000600060006000600060000000000000038
:104A6000000000000000000000001F8030C06060F7
:104A700060606060304038C00F00138030C06060FC
:104A800060606060606030C00F8000000000000067
:104A9000000000000000000000000F00308030C067
:104AA000604060606060606060E031601E60006077
:104AB00000C000C0308031801E00000000000000F7
:104AC00000000000000000000000000000000000E6
:104AD00000000000070007000700000000000000C1
:104AE00000000000070007000700000000000000B1
:104AF00000000000000000000000000000000000B6
:104B00000000000006000600000000000000000099
:104B1000000000000000060006000200040004007F
:104B200000000000000000000020004000800100A4
:104B3000020004000800100020001000080004001B
:104B40000200010000800040002000000000000082
:104B50000000000000000000000000000000000055
:104B6000000000007FE00000000000007FE0000087
:104B70000000000000000000000000000000000035
:104B800000000000000000002000100008000400E9
:104B90000200010000800040002000400080010071
:104BA00002000400080010002000000000000000C7
:104BB0000000000000000000000007C01860203066
:104BC00020303030303000E001800200020002006E
:104BD00000000000070007000700000000000000C0
:104BE0000000000000000000070018C0304033A0A3
:104BF00026A066A065A06D206D206D206D206D4003
:104C000027803020304018C00F0000000000000056
:104C100000000000000000000000060006000A007E
:104C20000B00090009001100118010801F8020C0B6
:104C300020C0204040404060F0F000000000000034
:104C4000000000000000000000007F0031C030C004
:104C500030C030C030C031803F0030C030403060A4
:104C600030603060306030C07F80000000000000A5
:104C70000000000000000000000007C018C0306005
:104C80003020202060006000600060006000600054
:104C900060203020304018C00F00000000000000ED
:104CA00000000000000000000000FE00318030C065
:104CB00030C0306030603060306030603060306014
:104CC000306030C030C03180FE00000000000000C5
:104CD00000000000000000000000FFC060C0602075
:104CE00060206000610061007F0061006100610080
:104CF0006000602060206040FFC0000000000000F5
:104D000000000000000000000000FFC060C0602044
:104D100060206000610061007F006100610061004F
:104D20006000600060006000F8000000000000000B
:104D3000000000000000000000000F00188030405C
:104D400030402040600060006000600063F060C0A0
:104D500060C030C030C018C00F000000000000006C
:104D600000000000000000000000F0F060606060E3
:104D700060606060606060607FE060606060606094
:104D80006060606060606060F0F000000000000043
:104D9000000000000000000000003FC00600060008
:104DA00006000600060006000600060006000600D3
:104DB00006000600060006003FC0000000000000DC
:104DC000000000000000000000001FE003000300DE
:104DD00003000300030003000300030003000300BB
:104DE00003000300030003000300630066003C00AF
:104DF00000000000000000000000F3C061806300BC
:104E00006200640068006C00740076006200630059
:104E100061006180608060C0F1E00000000000007F
:104E200000000000000000000000F80060006000CA
:104E30006000600060006000600060006000600072
:104E40006000602060206040FFC0000000000000A3
:104E500000000000000000000000E0E061C061C050
:104E600071C071C072C072C052C05AC05AC05CC01A
:104E70004CC04CC04CC048C0E1E000000000000045
:104E80000000000000000000000071F030403840D9
:104E900038402C402C4026402640224023402140D0
:104EA00021C021C020C020C0F84000000000000048
:104EB000000000000000000000000F00198030C05A
:104EC0003040606060606060606060606060606032
:104ED0006060304030C019800F000000000000000A
:104EE00000000000000000000000FF0060C06060E3
:104EF000606060606060606061C07F006000600052
:104F00006000600060006000F80000000000000029
:104F1000000000000000000000000F00198030C0F9
:104F200030406060606060606060606060606060D1
:104F30006E60324033C019800F0001E000C00000F5
:104F400000000000000000000000FF8060C0606002
:104F500060606060606060C07F006200630061004C
:104F6000618060C060C06060F07000000000000000
:104F7000000000000000000000001F4030C0604042
:104F80006040600070003C001F0007C001C000E0EE
:104F900040604060606030C00F8000000000000092
:104FA000000000000000000000007FE046208610A6
:104FB0008610060006000600060006000600060031
:104FC00006000600060006001F800000000000002A
:104FD0000000000000000000000078E03040304099
:104FE0003040304030403040304030403040304041
:104FF00030403040304018800F00000000000000BA
:1050000000000000000000000000F0E06040208090
:1050100020803080308011001100190019000A0032
:105020000A000E000C000400040000000000000054
:1050300000000000000000000000EF704620422049
:105040006220622026402640274027403940398090
:10505000198019801180110011000000000000006B
:105060000000000000000000000079E030801080A7
:10507000188009000D0006000400060006000B0061
:1050800009001180108020C071E0000000000000C5
:1050900000000000000000000000F0F06020204050
:1050A0003040108018801D000D000E000600060024
:1050B00006000600060006001F8000000000000039
:1050C000000000000000000000003FE0304060C031
:1050D000408001800100020002000400040008007A
:1050E00018001020302020407FC000000000000089
:1050F0000000000007C004000400040004000400D5
:10510000040004000400040004000400040004007F
:1051100004000400040004000400040007C00000B0
:10512000000000000000000020002000100010001F
:105130000800080008000400040002000200030048
:10514000010001000080008000400040004000207D
:10515000000000003E000200020002000200020007
:10516000020002000200020002000200020002002F
:105170000200020002000200020002003E000000E5
:105180000000060009001080000000000000000080
:10519000000000000000000000000000000000000F
:1051A00000000000000000000000000000000000FF
:1051B00000000000000000000000000000000000EF
:1051C00000000000000000000000000000000000DF
:1051D0000000000000000000000000000000FFF0E0
:1051E00000000000180006000000000000000000A1
:1051F00000000000000000000000000000000000AF
:10520000000000000000000000000000000000009E
:10521000000000000000000000000000000000008E
:10522000000000000F8030C030C000C007C038C090
:1052300070C060C060C071D03E700000000000000F
:10524000000000000000000010007000300030007E
:105250003000300033803CC03860306030603060F7
:1052600030603060304038C027800000000000000F
:10527000000000000000000000000000000000002E
:10528000000000000F00318031806180600060000C
:1052900060006040304030800F00000000000000DF
:1052A0000000000000000000004003C000C000C07B
:1052B00000C000C01EC031C030C060C060C060C04F
:1052C00060C060C020C031E01E800000000000000F
:1052D00000000000000000000000000000000000CE
:1052E00000000000078018C01040306030603FE0D0
:1052F0003000300018201840078000000000000037
:105300000000000000000000000003C006600C6008
:105310000C000C007F800C000C000C000C000C003A
:105320000C000C000C000C003F800000000000008E
:10533000000000000000000000000000000000006D
:10534000000000000FE01B60318031803180198047
:105350001F0030003F0033C060C060C071C01F003C
:10536000000000000000000010007000300030005D
:1053700030003000378038C030C030C030C030C05E
:1053800030C030C030C030C079E000000000000004
:105390000000000000000000000006000600000001
:1053A000000002003E00060006000600060006009F
:1053B00006000600060006003FC0000000000000D6
:1053C00000000000000000000000038003800000D7
:1053D000000000800F800180018001800180018039
:1053E00001800180018001800180018033003E0046
:1053F00000000000000000001000700030003000CD
:105400003000300031C031003100320036003A0047
:1054100031003180308030C079E0000000000000B1
:10542000000000000000000002003E000600060030
:10543000060006000600060006000600060006003C
:1054400006000600060006003FC000000000000045
:10545000000000000000000000000000000000004C
:1054600000000000ECE07760666066606660666081
:105470006660666066606660FFF000000000000025
:10548000000000000000000000000000000000001C
:1054900000000000778038C030C030C030C030C05D
:1054A00030C030C030C030C079E0000000000000E3
:1054B00000000000000000000000000000000000EC
:1054C000000000000F00198030C060606060606004
:1054D0006060606030C030C00F000000000000005D
:1054E00000000000000000000000000000000000BC
:1054F00000000000778038C030603060306030607D
:105500003060306030C038C03780300030007C0000
:10551000000000000000000000000000000000008B
:10552000000000001E4031C030C060C060C060C0DC
:1055300060C060C020C031C01EC000C000C003E019
:10554000000000000000000000000000000000005B
:1055500000000000F9C01A601C6018001800180054
:105560001800180018001800FF00000000000000DC
:10557000000000000000000000000000000000002B
:10558000000000000FC038C0304030401C000F0049
:1055900003C020C020C031C03F80000000000000D8
:1055A00000000000000000000000000004000400F3
:1055B0000C000C007F800C000C000C000C000C0098
:1055C0000C000C000C400C400780000000000000A4
:1055D00000000000000000000000000000000000CB
:1055E0000000104071C030C030C030C030C030C08A
:1055F00030C030C030C039E01E8000000000000024
:10560000000000000000000000000000000000009A
:105610000000000078E03040108010801880090001
:105620000D000D0006000600040000000000000050
:10563000000000000000000000000000000000006A
:1056400000000000EF7046206220264026403740D0
:1056500039801980198019801000000000000000B6
:10566000000000000000000000000000000000003A
:10567000000000003DE0188008800D0006000600D4
:1056800007000900108010C079E000000000000051
:10569000000000000000000000000000000000000A
:1056A0000000000079E010801080108009000900DF
:1056B0000D00060006000600040004002400380067
:1056C00000000000000000000000000000000000DA
:1056D000000000003F80218023002200060004001B
:1056E0000C001840104030C03F8000000000000057
:1056F0000000000000C001000100010001000100E5
:10570000010001000100020004000200010001008C
:1057100001000100010001000100010000C00000C3
:105720000200020002000200020002000200020069
:105730000200020002000200020002000200020059
:105740000200020002000200020002000200020049
:1057500000000000300008000800080008000800F1
:105760000800080008000400020004000800080007
:1057700008000800080008000800080030000000C9
:10578000000038004420432001C000000000000059
:105790000000000000000000000000000000000009
:1057A00000000000000000000000000000000000F9
:1057B00000000000000000000000000000000000E9
:1057C00000000000000000000000000000000000D9
:1057D00000000000000000000000000000000000C9
:1057E00000000000000000000000000000000000B9
:1057F00000000000000000000000000000000000A9
:105800000000000000000000000000000000000098
:105810000000000000000000000000000000000088
:105820000000000000000000000000000000000078
:1058300000000000000000000000000003C003C0E2
:1058400003C003C003C003C001C001800180018008
:1058500001800180018001800180000000000000C3
:10586000018003C003C001800000000000000000B0
:105870000000000000000000000000000000000028
:105880000000000000000000000000000000000018
:105890000000000000000000000000000000000008
:1058A00000000000000000000000000000000000F8
:1058B000000000000318073807380E700C6018C08D
:1058C0003180210000000000000000000000000006
:1058D00000000000000000000000000000000000C8
:1058E00000000000000000000000000000000000B8
:1058F00000000000000000000000000000000000A8
:105900000000000000000000000000000000000097
:105910000000000000000000000000000000000087
:105920000000000000000000000000000000000077
:10593000000000000000000000000000040804084F
:105940000408040804087FFE7FFE7FFE081008108C
:1059500008100810081008107FFE7FFE7FFE183028
:105960001020102010201020000000000000000077
:105970000000000000000000000000000000000027
:105980000000000000000000000000000000000017
:105990000000000000000000000000000000000007
:1059A00000000000000000000000000000000000F7
:1059B00000000000000000000100010003C00D30E5
:1059C00009181918193819381D000D000F000700A3
:1059D00003C001E001F0013001380118391839180D
:1059E00031183130196007C00100010001000000CA
:1059F00000000000000000000000000000000000A7
:105A00000000000000000000000000000000000096
:105A10000000000000000000000000000000000086
:105A20000000000000000000000000000000000076
:105A300000000000000000000000000038106C10A2
:105A40004420C620C640C640C640C680C6804480AA
:105A50006D38396C024402C602C604C604C608C6C4
:105A600008C60844106C1038000000000000000058
:105A70000000000000000000000000000000000026
:105A80000000000000000000000000000000000016
:105A90000000000000000000000000000000000006
:105AA00000000000000000000000000000000000F6
:105AB0000000000000000000000000000F001900BE
:105AC0003180318031803180310033003A001C0058
:105AD000387C3C104C10CE10C620C720C320C1C05B
